:020000040800F2
:100000000040002029200008C50400086F200008D7
:1000100000000000000000000000000000000000E0
:10002000000000000000000000000000C7040008FD
:100030000000000000000000C90400084D21000875
:1000400075200008000000007B20000881200008C7
:10005000872000088D2000089320000899200008C0
:10006000000000009F200008A5200008AB20000829
:10007000B1200008B7200008BD20000800000000E3
:10008000C3200008C9200008CF200008D5200008A0
:10009000DB2000082121000839210008E1200008A8
:1000A000E7200008ED200008F3200008F9200008F0
:1000B000FF20000805210008000000000B210008B7
:1000C00010B5064C2378002B07D1054B002B02D02E
:1000D000044800E000BF0123237010BD0C00002085
:1000E00000000000AC210008044B10B5002B03D029
:1000F0000349044800E000BF10BDC04600000000F6
:1001000010000020AC210008002243088B4274D369
:1001100003098B425FD3030A8B4244D3030B8B4208
:1001200028D3030C8B420DD3FF22090212BA030C11
:100130008B4202D31212090265D0030B8B4219D3F2
:1001400000E0090AC30B8B4201D3CB03C01A524112
:10015000830B8B4201D38B03C01A5241430B8B425A
:1001600001D34B03C01A5241030B8B4201D30B0343
:10017000C01A5241C30A8B4201D3CB02C01A52416A
:10018000830A8B4201D38B02C01A5241430A8B422D
:1001900001D34B02C01A5241030A8B4201D30B0216
:1001A000C01A5241CDD2C3098B4201D3CB01C01A30
:1001B000524183098B4201D38B01C01A524143093A
:1001C0008B4201D34B01C01A524103098B4201D328
:1001D0000B01C01A5241C3088B4201D3CB00C01A95
:1001E000524183088B4201D38B00C01A524143080D
:1001F0008B4201D34B00C01A5241411A00D2014632
:10020000524110467047FFE701B5002000F006F8A4
:1002100002BDC0460029F7D076E770477047C04658
:1002200070B588B01422002103A801F0B7FF224B5B
:10023000596980200003014359615A6902400092C4
:10024000009A59698020C003014359615A690240EC
:100250000192019A5A69802189020A435A615B69B5
:100260000B400293029B9026F605002220213000CD
:1002700001F079FC80239B010393104B049300242D
:1002800005940F4D03A9280001F09EFB2023039342
:100290001F3B04930594069403A9300001F094FBDE
:1002A00080235B0103930494059403A9280001F0C3
:1002B0008BFB08B070BDC04600100240000021104A
:1002C0000008004872B6FEE700B58FB0102200218A
:1002D0000AA801F063FF0822002108A801F05EFFD0
:1002E0001C22002101A801F059FF2148214B036085
:1002F0002F234360002383601F4AC2600361836130
:1003000000F030FF002828D180235B010A930AA95E
:10031000174800F0EBFD002821D1154800F05AFFE6
:1003200000281ED100230893099308A9104800F063
:1003300089FF002817D160230193002302930393C0
:100340000593002201A90A4800F054FD00280CD1B1
:10035000074800F02FF90FB000BDFFF7B3FFFFF71C
:10036000B1FFFFF7AFFFFFF7ADFFFFF7ABFFC046F1
:100370009001002000040040E703000010B5094888
:10038000094B03602F234360002383606422C26013
:1003900003614361836100F0E5FE002800D110BDD8
:1003A000FFF790FF280000200044014010B50948E5
:1003B000094B03602F23436000238360074AC26018
:1003C00003614361836100F0CDFE002800D110BDC0
:1003D000FFF778FFDC0000200048014010270000F4
:1003E00010B50B480B4B036096231B0243600023A0
:1003F0008360C36003610C2242618361C361036255
:10040000436201F0D9FD002800D110BDFFF75AFF6B
:10041000440200200044004000B591B03022002189
:1004200004A801F0BBFE10220021684601F0B6FED0
:1004300002230493012207920F3208920C93802327
:100440001B020D9380235B030E9304A800F030FF82
:1004500000280ED107230093053B0193002302934C
:1004600003930121684601F0B5F9002803D111B0CA
:1004700000BDFFF727FFFFF725FF000010B501F0D3
:1004800081FAFFF7C9FFFFF7CBFEFFF71DFFFFF76C
:1004900075FFFFF78BFFFFF7A3FF074800F02EFB68
:1004A000064800F02BFB00F0E6F80021044800F0BD
:1004B0009DFD00F0E0F8FEE7DC00002028000020B1
:1004C00090010020FEE770477047000010B504005F
:1004D000074B02689A4204D02268064B9A4203D026
:1004E00010BD00F06BF9F7E700F0C6F8F8E7C0467A
:1004F000004801400044014082B00A4B9969012242
:100500001143996199690A400092009ADA69802141
:1005100049050A43DA61DB690B400193019B02B094
:100520007047C0460010024000B585B003681D4A00
:10053000934207D01C4A93420ED01C4A93421ED0CD
:1005400005B000BD1A4AD16902231943D161D269AD
:1005500013400193019BF3E7154A916980208002C3
:1005600001439161936903400293029B00220021A1
:10057000152001F0FFFA152001F02CFBE0E70C4AF2
:1005800091698020C0020143916193690340039304
:10059000039B00220221162001F0ECFA162001F044
:1005A00019FBCDE700040040004401400048014031
:1005B0000010024010B586B004001422002101A8EA
:1005C00001F0ECFD22680D4B9A4201D006B010BD3F
:1005D0000B4A5169802080020143516153690340F5
:1005E0000093009B402301933E3B0293013B059304
:1005F000902001A9C00501F0E7F9E7E700040040F9
:100600000010024010B588B004001422002103A895
:1006100001F0C4FD2268124B9A4201D008B010BD0F
:10062000104BD969802292021143D961D9691140D6
:10063000019101995969114359615B691A4002920C
:10064000029B0C2303930A3B049301330693023B62
:100650000793902003A9C00501F0B6F9DEE7C04674
:100660000044004000100240704710B500F0C0F890
:1006700000F018F910BD7047024A13680133136087
:100680007047C046C8020020014B18687047C0463A
:10069000C802002010B50400FFF7F6FF022C07D0B7
:1006A000032C08D0012C00D010BD044B1861FBE7CF
:1006B000024B9861F8E7014B1862F5E7C802002089
:1006C00010B50400FFF7E0FF022C0FD0032C10D070
:1006D000012C08D00023C31A022C11D0032C13D0F4
:1006E000012C09D010BD0A4B1B69F4E7084B9B692C
:1006F000F1E7074B1B6AEEE7054A53635061F1E7E8
:10070000034A9363D061EDE7014AD3635062E9E79E
:10071000C802002010B50400FFF7B6FF022C0FD06E
:10072000032C10D0012C08D00023C31A022C11D0A6
:10073000032C13D0012C09D010BD0A4B9B6AF4E79F
:10074000084BDB6AF1E7074B1B6BEEE7054A1364C6
:100750009062F1E7034A5364D062EDE7014A936483
:100760001063E9E7C802002010B5124B5A68501C0C
:1007700058605422012199546331FFF74BFD002941
:1007800006D10C4BDA680132DA60562201319954F5
:10079000084B094A9A655422002199540120FFF719
:1007A00079FFFFF762FF0120FFF78AFF0120FFF7C3
:1007B000B1FF10BDC80200206B06000810B50A4B3F
:1007C0009A6801329A605522012199540749D965E6
:1007D000002199540220FFF75DFF0220FFF770FF10
:1007E0000220FFF797FF10BDC8020020690600082D
:1007F00010B580218901224801F0AEF9012819D0F5
:10080000204A136801331360312B03D9002313608E
:100810001D4A13701C4B1B78002B03D11B4A127806
:10082000012A14D0194A1370012B1BD0184B002237
:100830001A6010BD174A136801331360312BE9D9D0
:10084000130000221A60104B01321A70E2E71249BD
:100850000A780132D2B20A70052AE3D90A000121CE
:100860001170DFE70A4A1368013313600B4A9342A1
:10087000DFD9074B0A4A1A60074B00221A70D8E7E3
:10088000000800483003002038030020390300200E
:100890003C030020340300202C030020B70B000091
:1008A000B80B0000104B1B78052B18D89B000F4A83
:1008B000D3589F460E4BC7225A6370470C4B902269
:1008C000FF325A63F9E70A4B0A4A5A63F5E7084BC5
:1008D000094A5A63F1E7064B084A5A63EDE7044BAD
:1008E00000225A63E9E7C0462C030020C421000817
:1008F00000040040570200001F030000E70300004F
:10090000704770477047704770477047704770472F
:100910007047704730B5036A012293430362036A4C
:10092000426884697325AC430D682C430225AB43B0
:100930008D682B43144DA84208D0144DA84205D011
:10094000134DA84202D0134DA84205D10825AB4350
:10095000CD682B430425AB430B4DA84208D00B4D6B
:10096000A84205D00A4DA84202D00A4DA84205D19E
:10097000094D2A404D692A438D692A4342608461AA
:100980004A684263036230BD002C014000400140D0
:100990000044014000480140FFFCFFFF70B5036ABE
:1009A000194A13400362036A4268C4697325AC4361
:1009B0000E682643154C23408C6824022343144CB4
:1009C000A04219D0124CA04208D0124CA04205D02F
:1009D000114CA04202D0114CA04207D1104C14403F
:1009E0004A69120122438C6925012A434260C6618B
:1009F0004A68C263036270BD0A4C1C40CB681B028C
:100A00002343094C2340DDE7FFFEFFFFFFFDFFFF0F
:100A1000002C0140004001400044014000480140DA
:100A2000FFCFFFFFFFF7FFFFFFFBFFFF30B5036ABC
:100A3000134A13400362026A4368C469114D2C4093
:100A40000D682D022C43104D15408A6812032A436D
:100A50000E4DA84208D00E4DA84205D00D4DA8421B
:100A600002D00D4DA84204D10C4D2B404D69AD0173
:100A70002B434360C4614B680364026230BDC046CF
:100A8000FFEFFFFFFF8CFFFFFFDFFFFF002C0140A8
:100A9000004001400044014000480140FFBFFFFF0B
:100AA00030B5036A046A0125AC4304628469EF35FA
:100AB000AC43120122430A24A3430B438261036225
:100AC00030BD000030B5036A1024A343036284697B
:100AD000036A054D2C4012032243A024A3430901BD
:100AE00019438261016230BDFF0FFFFF83687022EE
:100AF00093430B4307210B43836070473D23C35C43
:100B0000012B22D13C330222C2540268D368012156
:100B10000B43D36003680F4A93420BD00E4A9342B3
:100B200008D00E4A934205D01A6801210A431A6080
:100B300000200BE0996807220A40062A07D01A68AD
:100B400001210A431A60002000E0012070470020C4
:100B5000FCE7C046002C014000040040004001407A
:100B600010B5040003681A69920711D5DA68920774
:100B70000ED5032252421A610123037703689B6951
:100B80009B0700D184E09023C35898470023237724
:100B900023681A69520714D5DA68520711D505225D
:100BA00052421A610223237723689A69C0239B006B
:100BB0001A4200D174E09023E358200098470023A4
:100BC000237723681A69120711D5DA6812070ED540
:100BD000092252421A61042323772368DB699B07A9
:100BE00067D09023E3582000984700232377236899
:100BF0001A69D20613D5DA68D20610D511225242EC
:100C00001A61082323772368DA69C0239B001A42FC
:100C100058D09023E3582000984700232377236877
:100C20001A69D20709D5DA68D20706D502225242DC
:100C30001A618023E3582000984723681A69120636
:100C400009D5DA68120606D5812252421A61B0230C
:100C5000E3582000984723681A69520609D5DA68D4
:100C6000520606D5412252421A618823E3582000D9
:100C7000984723681A69920609D5DA68920606D55C
:100C8000212252421A61A823E3582000984710BD40
:100C90009823C35898479C23E3582000984775E74A
:100CA0009823E358200098479C23E3582000984756
:100CB00085E79823E358200098479C23E3582000B9
:100CC000984792E79823E358200098479C23E358DD
:100CD00020009847A1E7000003681D4A904202D017
:100CE0001C4A904203D1702293434A681343184A26
:100CF00090420ED0174A90420BD0174A904208D02B
:100D0000164A904205D0164A904202D0154A9042A7
:100D100003D1154A1340CA681343802293434A699A
:100D2000134303608B68C3620B688362084B98426D
:100D300008D00A4B984205D0094B984202D0094B83
:100D4000984201D10B690363012343617047C04698
:100D5000002C014000040040002000400040014001
:100D60000044014000480140FFFCFFFF70B5036AEA
:100D7000102293430362036A42688469174D2C4032
:100D80000D682D0225432024A3438C6824012343AE
:100D9000134CA04219D0124CA04208D0114CA042D2
:100DA00005D0114CA04202D0104CA04207D1104CEB
:100DB00014404A69920022438C69A6003243426083
:100DC00085614A688263036270BD8024A3431C006E
:100DD000CB681B0123434024A343DCE7FF8CFFFFC8
:100DE000002C014000400140004401400048014007
:100DF000FFF3FFFF70B504000D003C23C35C012B23
:100E000063D03C230121C154082A4AD019D8002AB2
:100E10002FD0042A40D129000068FFF7A7FF2268DD
:100E2000916980231B010B439361226893692849D0
:100E30000B40936121688B692A69120213438B610D
:100E40002AE00C2A28D129000068FFF7EFFD22686C
:100E5000D16980231B010B43D3612268D3691C49EC
:100E60000B40D3612168CB692A6912021343CB611D
:100E700012E029000068FFF74DFD22689369082100
:100E80000B4393612268936904398B439361226811
:100E9000936929690B4393613C230022E2540020AB
:100EA00070BD29000068FFF779FD2268D369082129
:100EB0000B43D3612268D36904398B43D361226821
:100EC000D36929690B43D361E6E70220E8E7C0460E
:100ED000FFFBFFFF30B58468034D2C401B0213431A
:100EE0000B432343836030BDFF00FFFF10B50400B8
:100EF0003C23C35C012B66D03C230122C254013346
:100F00000132C254026893683048034093600B6812
:100F1000602B44D024D8402B4BD00BD9502B0ED172
:100F2000CA6849682068FFF7BBFD50212068FFF7B9
:100F3000DDFD04E0202B0ED009D9302B0BD03D2352
:100F40000122E254013B0022E254002010BD002B9C
:100F500001D0102BF3D119002068FFF7C7FDEEE791
:100F6000702B10D0802292019342E8D1CB684A685E
:100F700089682068FFF7AEFF226891688023DB0153
:100F80000B439360DBE7CB684A6889682068FFF70A
:100F9000A1FF2268936877210B439360CFE7CA686B
:100FA00049682068FFF78EFD60212068FFF79EFDED
:100FB000C5E7CA6849682068FFF772FD40212068CC
:100FC000FFF794FDBBE70220C0E7C0468800FFFFA3
:100FD00010B51F23194001248C40036AA343036208
:100FE000036A8A401343036210BD000010B5040079
:100FF000002932D13E23C35C013B5A1E9341DBB230
:10100000002B5ED1002941D13E330222E25401225D
:101010002068FFF7DDFF23682C4A934208D02C4A52
:10102000934205D02B4A934202D02B4A934204D1DB
:10103000596C802212020A435A642368234A93425D
:1010400034D0264A934231D0214A93422ED01A6896
:1010500001210A431A60002034E0042908D008293D
:101060000DD04123C35C013B5A1E9341DBB2C7E75D
:101070003F23C35C013B5A1E9341DBB2C0E74023D0
:10108000C35C013B5A1E9341DBB2B9E7042905D08A
:10109000082907D041230222E254B8E73F23022265
:1010A000E254B4E740230222E254B0E799680722F1
:1010B0000A40062A07D01A6801210A431A60002054
:1010C00000E0012010BD0020FCE7C046002C0140DC
:1010D000004001400044014000480140000400403D
:1010E0008023134AC2500433124AC2500433124AB6
:1010F000C2500433114AC2500433114AC25004335F
:10110000104AC2500433104AC25004330F4AC2502E
:1011100004330F4AC25004330E4AC25004330E4AFD
:10112000C25004330D4AC25004330D4AC2507047B6
:10113000CD040008030900080F0900081109000880
:101140000709000809090008050900080B0900083B
:101150000D09000813090008A9120008AB120008C5
:10116000AD12000870B5041E2FD03D23C35C002BC8
:101170001CD03D2502236355210001C9FFF7ACFDBA
:1011800001234622A354083AA3540132A354013246
:10119000A3540132A3540132A3540132A3540132A7
:1011A000A3540132A3546355002070BD3C33002288
:1011B000C254FFF795FFA36C002B03D02000A36C53
:1011C0009847D6E7024BA364F8E70120EDE7C04655
:1011D0002905000870B5041E2FD03D23C35C002BE9
:1011E0001CD03D2502236355210001C9FFF774FD82
:1011F00001234622A354083AA3540132A3540132D6
:10120000A3540132A3540132A3540132A354013236
:10121000A3540132A3546355002070BD3C33002217
:10122000C254FFF75DFF236E002B03D02000236E16
:101230009847D6E7024B2366F8E70120EDE7C04662
:101240000109000830B53C23C35C012B24D03C23AA
:101250000122C25401330132C25403685A689C68A7
:101260007025AA430D682A435A6003680B4A9342CB
:1012700005D00B4A934202D00A4A934204D18022FD
:1012800094434A6814439C603D230122C254013BAD
:101290000022C254002030BD0220FCE7002C014097
:1012A0000004004000400140704770477047000054
:1012B00070B582B0041E00D138E20368DB072BD57D
:1012C000B34B5A680C231340042B1DD0B04B5A6803
:1012D0000C231340082B0ED06368012B41D0002B48
:1012E00056D1AB4B1A68AB490A401A601A68AA4932
:1012F0000A401A603BE0A64B5B68C02252021340D2
:10130000802252029342E7D1A14B1B689B0303D575
:101310006368002B00D10CE223689B0777D59C4BB8
:101320005B680C221A4262D0994B5A680C23134016
:10133000082B53D0E368002B00D18AE0944A13684D
:1013400001210B43136000F039FB0500904B1B6833
:101350009B0775D400F032FB401B0228F6D903200E
:10136000E5E18B4A116880235B020B4313606368DD
:10137000002B25D000F022FB0500854B1B689B034A
:10138000CAD400F01BFB401B6428F6D90320CEE131
:10139000052B09D07E4B1A687E490A401A601A68EC
:1013A0007D490A401A60E2E7794B19688022D2022F
:1013B0000A431A601968802252020A431A60D6E76B
:1013C00000F0FCFA0500724B1B689B03A4D500F0EB
:1013D000F5FA401B6428F6D90320A8E16C4B5B6842
:1013E000C02252021340802212029342A2D1684BC3
:1013F0001B689B0703D5E368012B00D09BE1644980
:101400000B68F82293432269D20013430B602368D0
:101410001B0744D5E369002B2ED05D4A536A012196
:101420000B43536200F0CAFA0500594B5B6A9B07F5
:1014300035D400F0C3FA401B0228F6D9032076E128
:1014400053490B68F82293432269D20013430B607F
:10145000DDE74F4A136801218B43136000F0AEFAB9
:1014600005004B4B1B689B07D1D500F0A7FA401B2A
:101470000228F6D903205AE1454A536A01218B43D9
:10148000536200F09BFA0500414B5B6A9B0706D54F
:1014900000F094FA401B0228F6D9032047E12368A4
:1014A0005B0700D480E03A4BDB69DB001DD4384A8F
:1014B000D169802040050143D161D3690340019384
:1014C000019B0125354B1B68DB0510D5A368012B5B
:1014D00021D0002B36D12E4B1A6A01218A431A6281
:1014E0001A6A03318A431A621AE00025EAE72B4A96
:1014F000116880235B000B43136000F05FFA060065
:10150000264B1B68DB05E1D400F058FA801B6428E9
:10151000F6D903200BE11E4A136A01210B43136223
:10152000A368002B24D000F049FA0600184B1B6A70
:101530009B0737D400F042FA801B194B9842F5D92B
:101540000320F4E0052B09D0114B1A6A01218A43CC
:101550001A621A6A03318A431A62E1E70C4B1A6A6B
:1015600004210A431A621A6A03390A431A62D7E746
:1015700000F024FA0600064B1B6A9B0712D500F008
:101580001DFA801B064B9842F5D90320CFE0C046D8
:1015900000100240FFFFFEFFFFFFFBFF0070004056
:1015A00088130000012D33D02368DB0610D5636952
:1015B000012B33D0053351D1654A536B04218B4342
:1015C0005363536BF4318B43A169C9000B435363DD
:1015D000236A002B00D1B0E05D4A51680C220A401A
:1015E000082A00D18AE0022B4FD0594A1368594982
:1015F0000B40136000F0E2F90400554B1B689B019F
:101600007AD500F0DBF9001B0228F6D903208EE022
:101610004F4AD36950490B40D361C5E74C4B5A6BD5
:1016200004210A435A635A6B03390A435A6300F090
:10163000C5F90500464B5B6B9B0706D400F0BEF96D
:10164000401B0228F6D9032071E041494B6BF82278
:101650009343A269D20013434B63B9E73C4B5A6BE7
:1016600004210A435A635A6B03398A435A6300F0D0
:10167000A5F90500364B5B6B9B07A9D500F09EF9D9
:10168000401B0228F6D9032051E0314A1368314942
:101690000B40136000F092F905002D4B1B689B0175
:1016A00006D500F08BF9401B0228F6D903203EE056
:1016B000274BDA6A0F218A43E16A0A43DA625A68E1
:1016C00026490A40A16A606A01430A435A601968C0
:1016D000802252040A431A6000F070F904001C4B87
:1016E0001B689B0106D400F069F9001B0228F6D99B
:1016F00003201CE000201AE0002018E0012B1ED07F
:10170000134B5A68D96AC0235B021340606A834254
:1017100017D10F230B40E16A8B4214D1F0239B03B6
:101720001A40A36A9A4210D1002000E0012002B0C2
:1017300070BD0120FBE70120F9E70020F7E7012059
:10174000F5E70120F3E70120F1E70120EFE7C046CC
:1017500000100240FFFFFFFEFFFFFFEFFF7FC2FF11
:1017600010B588B004AA174B13CB13C21B681360C3
:101770006A46154B13CB13C21B681360134B5A6890
:101780000C231340082B02D0114808B010BD910C57
:101790000733194004A8445C0C49C96A0B406946E8
:1017A000C95CC0235B021A4080235B029A4204D0CA
:1017B0000748FEF7A9FC6043E7E70548FEF7A4FCED
:1017C0006043E2E7DC210008F0210008001002403D
:1017D00000127A0070B504000D00002800D17EE0F0
:1017E000434B1A68012313408B420AD240490B68CD
:1017F000012293432B430B600B681A40AA4200D08E
:101800006FE023689A070ED55B0705D5394A516802
:10181000E023DB000B435360364A5368F0218B43CF
:10182000A1680B4353602368DB072DD56368012B48
:101830001ED0022B22D02F4A1268920753D52D4971
:101840004A680320824313434B6000F0B7F8060058
:10185000284B5B680C221A4063689B009A4213D0A5
:1018600000F0ACF8801B244B9842F1D9032035E0FE
:10187000204A12689203E2D401202FE01D4A126828
:101880009201DCD4012029E0194B1A68012313408E
:10189000AB4209D916490B68012293432B430B60D5
:1018A0000B681A40AA4220D123685B0706D5114A6B
:1018B000536812490B40E1680B435360FFF750FF38
:1018C0000C4B5A6812090F2313400D4AD35CD840C1
:1018D0000C4B1860012000F02DF8002070BD012095
:1018E000FCE70120FAE70120F8E70120F6E7C0460F
:1018F000002002400010024088130000FFF8FFFFA4
:101900000422000808000020014B18687047C046F8
:101910000800002010B5FFF7F7FF044B5A68120AC1
:1019200007231340024AD35CD84010BD0010024088
:101930001422000810B504000F4B1978FA2080001B
:10194000FEF7E2FB01000D4B1868FEF7DDFB00F02F
:101950004DF900280DD1032C01D901200AE00130F6
:1019600000222100404200F005F9054B1C600020D8
:1019700000E0012010BDC04600000020080000204B
:101980000400002010B5064A136810210B431360B1
:101990000120FFF7CFFFFEF7AFFD002010BDC046CE
:1019A00000200240034A1168034B1B785B18136048
:1019B0007047C0464003002000000020014B18681B
:1019C0007047C04640030020F0B5CE46474680B57C
:1019D00083B0002333E0032600E00026A640340055
:1019E0003C4302329200564E9451564A1468EA43E0
:1019F0002600AE434F68FF0301D52C432600514C0F
:101A000026606468260016404F68BF0301D52C434A
:101A100026004C4C6660A468260016404F68FF0202
:101A200001D52C432600474CA660E46822404E684E
:101A3000B60201D52A002243424CE26001330C6811
:101A40002200DA4077D001229A4025001540144246
:101A5000F4D04C68661E012E03D9112C01D0122C33
:101A600012D184685F000326BE40B4432600CC68D0
:101A7000BC4034438460446894434A681609012298
:101A800032409A4022434260C4685F000326BE4051
:101A9000F2439446B44326008C68BC403443C4608F
:101AA0004A68022A01D0122A10D1DE080836B20094
:101AB0009146145807221A4092000F269640B443CC
:101AC0000E699640320022434C462250046862461A
:101AD000144003224E683240BA40224302604A68F2
:101AE000D200ABD5184CA66901221643A661A469A1
:101AF00022400192019A9A08941CA400104EA75902
:101B000003241C40A4000F26A640B7439026F605E8
:101B1000B04200D161E70D4EB04208D00C4EB04249
:101B200007D00C4EB04200D155E7052656E70126F6
:101B300054E7022652E703B0C0BCB946B046F0BD38
:101B40000000014000040140001002400004004871
:101B500000080048000C004803690B4201D0012036
:101B600070470020FCE7002A01D081617047816244
:101B7000FCE7000070B5002811DB8308134EC0336A
:101B80009B009D5903242040C000FF221400844084
:101B9000A54389010A4082402A439A5170BD0F2310
:101BA0000340083B9B0806339B00094A9446634464
:101BB0005C6803221040C000FC3215008540AC4335
:101BC00089010A40824022435A60E7E700E100E0D1
:101BD00000ED00E0002805DB1F2318401E3B83407A
:101BE000014A13607047C04600E100E001388023DD
:101BF0005B0498420FD2094A50600948036A1B02ED
:101C00001B0AC02109060B430362002393600733BC
:101C10001360002070470120FCE7C04610E000E0A0
:101C200000ED00E010B504008368026913434269C7
:101C30001343C269134301680A68554802401343BD
:101C40000B602268536853490B40E1680B435360B3
:101C5000226AA3691A4321688B684F4803401343E3
:101C60008B6023684D4A93420AD04D4A934240D03C
:101C70004C4A93423FD04C4A934230D010230BE061
:101C80004A4B1A6B03231340022B2AD023D8002B74
:101C900029D0012B29D10333E0698022120290421E
:101CA0002BD0042B00D16BE05AD8002B62D0022B32
:101CB00054D13F4863685B0818186168FEF724FA3E
:101CC0000004000C0200103A3A4B9A425DD8236897
:101CD000D86000204AE0032B09D1013BDCE7002358
:101CE000DAE70823D8E70023D6E71023D4E7102348
:101CF000D2E70023D0E70023CEE7042B2BD020D857
:101D0000002B22D0022B1AD12948400063685B08BF
:101D1000C0186168FEF7F8F983B20004000C0100F6
:101D20001039244A91422ED80F2293431A004008BA
:101D30000723184010432368D860002016E00120D4
:101D400014E0082BE1D0012010E0FFF7E3FD0028AC
:101D5000DBD100200AE0FFF703FDF8E7012005E0F2
:101D6000082B02D180200002A4E701200023636633
:101D7000A36610BDFFF7CEFD00289BD10020F5E73C
:101D8000FFF7EEFCF8E70120F0E70120EEE7C046A0
:101D9000F369FFEFFFCFFFFFFFF4FFFF00380140C3
:101DA0000044004000480040004C00400010024049
:101DB00000127A00EFFF0000436ADB0706D50268D5
:101DC00053682C490B40816A0B435360436A9B075D
:101DD00006D50268536828490B40C16A0B4353601B
:101DE000436A5B0706D50268536824490B40016BC0
:101DF0000B435360436A1B0706D5026853682049AA
:101E00000B40416B0B435360436ADB0606D5026807
:101E100093681C490B40816B0B439360436A9B069C
:101E200006D50268936818490B40C16B0B43936059
:101E3000436A5B060BD50268536814490B40016C7A
:101E40000B43536080235B03026C9A420AD0436ABF
:101E50001B0606D5026853680D490B40816C0B4385
:101E600053607047026853680A490B40416C0B434A
:101E70005360ECE7FFFFFDFFFFFFFEFFFFFFFBFFEF
:101E8000FF7FFFFFFFEFFFFFFFDFFFFFFFFFEFFF22
:101E9000FFFFF7FFFFFF9FFFF8B5CE46474680B52F
:101EA00006000D0017009946089B98463368DC69C8
:101EB0002C40641B63425C41BC423DD1434601332C
:101EC000F4D0FFF77BFD4B46C01A404521D843466E
:101ED000002B1ED033681A685207E7D5DA6912055D
:101EE000E4D5802212011A623268136815490B404A
:101EF000136032689368A331FF318B4393602023D2
:101F0000B367F3678022B35054330022F2540320A6
:101F100013E0326813680B490B4013603268936812
:101F2000A331FF318B4393602023B367F3675433AE
:101F30000022F254032000E00020C0BCB946B046A5
:101F4000F8BDC0465FFEFFFF30B583B004008023BC
:101F50000022C250FFF732FD050022681268130705
:101F60000DD423681B685B0716D42023A367E3679F
:101F7000002323667422A354002003B030BD8021C7
:101F80000C4B00930300002289032000FFF784FF1D
:101F90000028E6D00320F0E78021064B00932B00B9
:101FA0000022C9032000FFF777FF0028DDD00320BF
:101FB000E3E7C046FFFFFF0110B5041E2ED0836F7C
:101FC000002B21D02423A3672268136801218B43AF
:101FD00013602000FFF726FE012814D0636A002B4F
:101FE00018D1226853680E490B40536022689368E9
:101FF00008218B4393602268136807390B431360F1
:102000002000FFF7A1FF10BD74330022C254FEF779
:10201000F9FAD7E72000FFF7CFFEE2E70120F2E769
:10202000FFF7FFFF7047000010B50B4B0B4A01E0B4
:1020300002CA02C30A498B42FAD30A4B01E00022CA
:1020400004C3094A9342FAD3FFF7ECFF00F082F889
:10205000FEF714FAFEE7C046000000202422000824
:102060000C0000200C00002044030020FEE710B507
:10207000FFF7FCFF10B5FFF7F9FF10B5FFF7F6FF0C
:1020800010B5FFF7F3FF10B5FFF7F0FF10B5FFF73E
:10209000EDFF10B5FFF7EAFF10B5FFF7E7FF10B54A
:1020A000FFF7E4FF10B5FFF7E1FF10B5FFF7DEFF24
:1020B00010B5FFF7DBFF10B5FFF7D8FF10B5FFF73E
:1020C000D5FF10B5FFF7D2FF10B5FFF7CFFF10B562
:1020D000FFF7CCFF10B5FFF7C9FF10B5FFF7C6FF3C
:1020E00010B5FFF7C3FF10B5FFF7C0FF10B5FFF73E
:1020F000BDFF10B5FFF7BAFF10B5FFF7B7FF10B57A
:10210000FFF7B4FF10B5FFF7B1FF10B5FFF7AEFF53
:1021100010B50248FEF724FD10BDC046280000207F
:1021200010B5FFF7F5FF10BD10B50248FEF718FD1A
:1021300010BDC046DC00002010B5FFF7F5FF10BD54
:1021400010B5FFF72FFCFEF70FFB10BD10B5FFF722
:10215000F7FF10BD70B500260C4D0D4C641BA4108C
:10216000A64209D1002600F021F80A4D0A4C641B52
:10217000A410A64205D170BDB300EB5898470136B4
:10218000EEE7B300EB5898470136F2E71C2200084F
:102190001C2200081C2200082022000803008218CC
:1021A000934200D1704719700133F9E7F8B5C04682
:1021B000F8BC08BC9E467047F8B5C046F8BC08BCE1
:0421C0009E46704780
:1021C400DE080008B4080008BC080008C6080008B7
:1021D400CE080008D608000802030405060708090B
:1021E4000A0B0C0D0E0F1010000000000102030476
:1021F40005060708090A0B0C0D0E0F10000000005D
:1022040000000000000000000102030406070809A2
:082214000000000001020304B8
:04221C00E9000008CD
:04222000C1000008F1
:0C222400010000000400000000127A001D
:0400000508002029A6
:00000001FF
